{"address":"0x9fE46736679d2D9a65F0992F2272dE9f3c7fa6e0","bytecode":"0x608060405234801561001057600080fd5b506040516104873803806104878339818101604052810190610032919061008d565b806000806101000a81548173ffffffffffffffffffffffffffffffffffffffff021916908373ffffffffffffffffffffffffffffffffffffffff160217905550506100ff565b600081519050610087816100e8565b92915050565b60006020828403121561009f57600080fd5b60006100ad84828501610078565b91505092915050565b60006100c1826100c8565b9050919050565b600073ffffffffffffffffffffffffffffffffffffffff82169050919050565b6100f1816100b6565b81146100fc57600080fd5b50565b6103798061010e6000396000f3fe608060405234801561001057600080fd5b506004361061002b5760003560e01c8063c68e35b014610030575b600080fd5b61004a60048036038101906100459190610164565b610060565b6040516100579190610254565b60405180910390f35b60008085604051602001610074919061022e565b6040516020818303038152906040528051906020012090506000600182878787604051600081526020016040526040516100b1949392919061026f565b6020604051602081039080840390855afa1580156100d3573d6000803e3d6000fd5b50505060206040510351905060008054906101000a900473ffffffffffffffffffffffffffffffffffffffff1673ffffffffffffffffffffffffffffffffffffffff168173ffffffffffffffffffffffffffffffffffffffff161492505050949350505050565b60008135905061014981610315565b92915050565b60008135905061015e8161032c565b92915050565b6000806000806080858703121561017a57600080fd5b60006101888782880161013a565b94505060206101998782880161014f565b93505060406101aa8782880161013a565b92505060606101bb8782880161013a565b91505092959194509250565b6101d0816102bf565b82525050565b6101df816102cb565b82525050565b6101f66101f1826102cb565b6102e2565b82525050565b6000610209601c836102b4565b9150610214826102ec565b601c82019050919050565b610228816102d5565b82525050565b6000610239826101fc565b915061024582846101e5565b60208201915081905092915050565b600060208201905061026960008301846101c7565b92915050565b600060808201905061028460008301876101d6565b610291602083018661021f565b61029e60408301856101d6565b6102ab60608301846101d6565b95945050505050565b600081905092915050565b60008115159050919050565b6000819050919050565b600060ff82169050919050565b6000819050919050565b7f19457468657265756d205369676e6564204d6573736167653a0a333200000000600082015250565b61031e816102cb565b811461032957600080fd5b50565b610335816102d5565b811461034057600080fd5b5056fea264697066735822122033c2b5abe5822508f4f304e95093244ddeb7a7ade856a6d70ea7cf35e7b01d7f64736f6c63430008040033","abi":[{"inputs":[{"internalType":"address","name":"_oracle","type":"address"}],"stateMutability":"nonpayable","type":"constructor"},{"inputs":[{"internalType":"bytes32","name":"hash","type":"bytes32"},{"internalType":"uint8","name":"v","type":"uint8"},{"internalType":"bytes32","name":"r","type":"bytes32"},{"internalType":"bytes32","name":"s","type":"bytes32"}],"name":"verifyHash","outputs":[{"internalType":"bool","name":"","type":"bool"}],"stateMutability":"nonpayable","type":"function"}]}